:100000000C9434000C9463000C9463000C94630013
:100010000C9463000C9463000C9463000C946300D4
:100020000C9463000C9463000C9463000C946300C4
:100030000C9463000C9463000C9463000C946300B4
:100040000C9463000C9463000C9463000C946300A4
:100050000C9463000C9463000C9463000C94630094
:100060000C9463000C94630011241FBECFEFD8E002
:10007000DEBFCDBF0E9459000C943E00F894FFCF24
:1000800082E390E02C9A2FEF31EE44E02150304093
:100090004040E1F700C000002C982FEF31EE44E023
:1000A000215030404040E1F700C00000019751F777
:0200B0000895B1
:1000B20080EF84B980E485B988EA85B92A980E94DC
:0400C2004000FFCF2C
:0400C6000C94000096
:00000001FF
