S00F0000446961706C61792E7372656351
S11300000C9434000C9451000C9451000C94510045
S11300100C9451000C9451000C9451000C94510018
S11300200C9451000C9451000C9451000C94510008
S11300300C9451000C9451000C9451000C945100F8
S11300400C9451000C9451000C9451000C945100E8
S11300500C9451000C9451000C9451000C945100D8
S11300600C9451000C94510011241FBECFEFD8E022
S1130070DEBFCDBF11E0A0E0B1E0E6EEF7E002C0E4
S113008005900D92AC31B107D9F721E0ACE1B1E0B4
S113009001C01D92AB32B207E1F70E941D020C941D
S11300A0F1030C9400008BB184608BB900C08BB158
S11300B08B7F8BB90895CF93C82F662321F08BB122
S11300C081608BB903C08BB18E7F8BB98BB18D7F6F
S11300D08BB98AB180618AB98AB180628AB98AB1DE
S11300E080648AB98AB180688AB98BB18F778BB9F9
S11300F08BB18F7B8BB98BB18F7D8BB98BB18F7E9D
S11301008BB9CC231CF48BB180688BB9C6FF03C0B8
S11301108BB180648BB9C5FF03C08BB180628BB98E
S1130120C4FF03C08BB180618BB90E9453008BB1B3
S11301308F778BB98BB18F7B8BB98BB18F7D8BB95B
S11301408BB18F7E8BB9C3FF03C08BB180688BB931
S1130150C2FF03C08BB180648BB9C1FF03C08BB1F4
S113016080628BB9C0FF03C08BB180618BB90E94E0
S113017053008BB180618BB98BB180628BB98BB129
S113018080648BB98BB180688BB9CF910895882333
S113019021F08BB181608BB903C08BB18E7F8BB999
S11301A08BB182608BB98AB18F7E8AB98AB18F7D17
S11301B08AB98AB18F7B8AB98AB18F778AB98BB1B0
S11301C084608BB900C04C9902C080E001C080E11A
S11301D04D9980624E9980644F9980689BB19B7F52
S11301E09BB900C09BB194609BB900C04C998160DD
S11301F04D9982604E9984604F9988609BB19B7F32
S11302009BB9089580E00E94C7008823DCF388E04E
S113021090E00197F1F780E00E94C7000895CF9322
S1130220C82F0E94020160E08C2F0E945B00CF91D6
S11302300895CF93C82F0E94020161E08C2F0E9481
S11302405B00CF910895611104C080580E940F0192
S1130250089580540E940F01089581E00E940F01C7
S11302600895CF93C82F0E940201CA3049F4803404
S113027010F480E401C080E080580E940F0104C0A3
S113028061E08C2F0E945B00CF910895CF93DF93A0
S1130290FC0103C00E943101FE01EF01219680811F
S11302A08111F8CFDF91CF9108951F93CF93DF93FE
S11302B0182F8AB181608AB98AB182608AB98AB1F9
S11302C084608AB98AB180618AB98AB180628AB944
S11302D08AB180648AB98AB180688AB980E09AEF69
S11302E00197F1F78BB180628BB98BB180618BB9C7
S11302F00E94530080E09EE40197F1F70E945300AE
S1130300C0E0D1E0CE010197F1F70E945300CE0185
S11303100197F1F78BB18F7E8BB90E94530021971F
S1130320F1F788E20E940F0188E00E940F0186E045
S11303300E940F01812F0E940F01DF91CF911F9125
S11303400895813051F018F0823081F00895ECE77F
S1130350F0E080818F7380830895ECE7F0E0808182
S11303608F7780838081806480830895ECE7F0E058
S11303708081806C80830895EAE7F0E08081806862
S1130380808380818F7D808380818F7D8083808145
S11303908560808380818D7F808308958230D9F049
S11303A028F4882349F0813069F00895843029F1D4
S11303B0D8F0853059F10895ECE7F0E08081807F32
S11303C080830895ECE7F0E08081817F80838081E1
S11303D0816080830895ECE7F0E08081827F8083F0
S11303E08081826080830895ECE7F0E08081837FE0
S11303F080838081836080830895ECE7F0E08081CE
S1130400847F80838081846080830895ECE7F0E0BA
S11304108081857F80838081856080830895EAE779
S1130420F0E080818064808380917A0086FDFCCF37
S1130430809178009091790008951AB81BB881E0F2
S11304400E94A1010E94BC018CE00E9455010E94FF
S11304502D0180E00E94CE0180E090E007C0E7E833
S1130460F3E13197F1F700C0000001968A3091055D
S1130470B4F31092230110922401109225011092DA
S11304802601209100013091010140910201509117
S1130490030160E070E0CB010E94FF022CEB34E723
S11304A043E15CE30E94FF022AE037ED43E25DE3AF
S11304B00E9492026093270170932801809329017E
S11304C090932A010E940F0290931D0180931C01B6
S11304D060E080E00E94230184E091E00E944601F4
S11304E060E089E00E942301609127017091280156
S11304F08091290190912A010E947103862F0E9404
S1130500190160E08CE00E9423018EE091E00E94DA
S1130510460165E080E00E94230182E191E00E94AF
S1130520460197CF5058BB27AA270E94AA020C94D1
S1130530B7030E94A90338F00E94B00320F039F4F5
S11305409F3F19F426F40C94A6030EF4E095E7FB00
S11305500C94A003E92F0E94C80358F3BA1762074A
S113056073078407950720F079F4A6F50C94EA0341
S11305700EF4E0950B2EBA2FA02D0B01B9019001BA
S11305800C01CA01A0011124FF27591B99F0593FFE
S113059050F4503E68F11A16F040A22F232F342F46
S11305A04427585FF3CF469537952795A795F04094
S11305B05395C9F77EF41F16BA0B620B730B840BA9
S11305C0BAF09150A1F0FF0FBB1F661F771F881F61
S11305D0C2F70EC0BA0F621F731F841F48F48795B9
S11305E077956795B795F7959E3F08F0B0CF9395AB
S11305F0880F08F09927EE0F9795879508950E9424
S113060013030C94B7030E94B00358F00E94A9038B
S113061040F029F45F3F29F00C94A00351110C948D
S1130620EB030C94A6030E94C80368F39923B1F367
S1130630552391F3951B550BBB27AA276217730704
S1130640840738F09F5F5F4F220F331F441FAA1F98
S1130650A9F335D00E2E3AF0E0E832D09150504054
S1130660E695001CCAF72BD0FE2F29D0660F771F02
S1130670881FBB1F261737074807AB07B0E809F0E8
S1130680BB0B802DBF01FF2793585F4F3AF09E3F6D
S1130690510578F00C94A0030C94EB035F3FE4F352
S11306A0983ED4F3869577956795B795F7959F5FB0
S11306B0C9F7880F911D9695879597F90895E1E0FC
S11306C0660F771F881FBB1F621773078407BA075B
S11306D020F0621B730B840BBA0BEE1F88F7E095B6
S11306E008950E94D00388F09F5798F0B92F992756
S11306F0B751B0F0E1F0660F771F881F991F1AF009
S1130700BA95C9F714C0B13091F00E94EA03B1E080
S113071008950C94EA03672F782F8827B85F39F07F
S1130720B93FCCF3869577956795B395D9F73EF4A1
S113073090958095709561957F4F8F4F9F4F089549
S113074097F99F6780E870E060E008959FEF80EC80
S1130750089500240A941616170618060906089523
S113076000240A9412161306140605060895092E89
S11307700394000C11F4882352F0BB0F40F4BF2BF8
S113078011F460FF04C06F5F7F4F8F4F9F4F089538
S113079057FD9058440F551F59F05F3F71F047952E
S11307A0880F97FB991F61F09F3F79F08795089513
S11307B0121613061406551FF2CF4695F1DF08C032
S11307C0161617061806991FF1CF8695710561054F
S11307D008940895E894BB2766277727CB0197F9F7
S10907E00895F894FFCF18
S11307E60000A04050726573696F6E3D20006B5027
S10F07F66100416C747572613D200000CC
S9030000FC
