:100000000C9461000C947E000C947E000C947E0095
:100010000C947E000C947E000C947E000C947E0068
:100020000C947E000C947E000C947E000C947E0058
:100030000C947E000C947E000C947E000C947E0048
:100040000C947E000C947E000C947E000C947E0038
:100050000C947E000C947E000C947E000C947E0028
:100060000C947E000C947E0008000000BE9224498F
:10007000123EABAAAA2ABECDCCCC4C3E00000080DA
:10008000BEABAAAAAA3E00000000BF000000803F4D
:100090000000000000084178D3BB4387D1133D190D
:1000A0000E3CC3BD4282AD2B3E68EC8276BED98F3A
:1000B000E1A93E4C80EFFFBE01C4FF7F3F0000007E
:1000C000000011241FBECFEFD8E0DEBFCDBF11E08E
:1000D000A0E0B1E0EAE2F1E102C005900D92AA329F
:1000E000B107D9F721E0AAE2B1E001C01D92AA341C
:1000F000B207E1F70E94F1010C9493080C94000000
:100100008BB184608BB900C08BB18B7F8BB90895A4
:10011000CF93C82F662321F08BB181608BB903C0C8
:100120008BB18E7F8BB98BB18D7F8BB98AB180619A
:100130008AB98AB180628AB98AB180648AB98AB17F
:1001400080688AB98BB18F778BB98BB18F7B8BB974
:100150008BB18F7D8BB98BB18F7E8BB9CC231CF487
:100160008BB180688BB9C6FF03C08BB180648BB93B
:10017000C5FF03C08BB180628BB9C4FF03C08BB1D4
:1001800080618BB90E9480008BB18F778BB98BB166
:100190008F7B8BB98BB18F7D8BB98BB18F7E8BB9F8
:1001A000C3FF03C08BB180688BB9C2FF03C08BB1A2
:1001B00080648BB9C1FF03C08BB180628BB9C0FF73
:1001C00003C08BB180618BB90E9480008BB18061CC
:1001D0008BB98BB180628BB98BB180648BB98BB1D9
:1001E00080688BB9CF910895882321F08BB181600D
:1001F0008BB903C08BB18E7F8BB98BB182608BB909
:100200008AB18F7E8AB98AB18F7D8AB98AB18F7B94
:100210008AB98AB18F778AB98BB184608BB900C0F3
:100220004C9902C080E001C080E14D9980624E99F6
:1002300080644F9980689BB19B7F9BB900C09BB144
:1002400094609BB900C04C9981604D9982604E9931
:1002500084604F9988609BB19B7F9BB9089580E033
:100260000E94F4008823DCF388E090E00197F1F726
:1002700080E00E94F4000895CF93C82F0E942F01C0
:1002800060E08C2F0E948800CF910895CF93C82FF3
:100290000E942F0161E08C2F0E948800CF91089569
:1002A000611104C080580E943C01089580540E944E
:1002B0003C01089581E00E943C010895CF93C82F2E
:1002C0000E942F01CA3049F4803410F480E401C048
:1002D00080E080580E943C0104C061E08C2F0E94A5
:1002E0008800CF910895CF93DF93FC0103C00E9453
:1002F0005E01FE01EF01219680818111F8CFDF912F
:10030000CF9108951F93CF93DF93182F8AB1816007
:100310008AB98AB182608AB98AB184608AB98AB19D
:1003200080618AB98AB180628AB98AB180648AB9E7
:100330008AB180688AB980E09AEF0197F1F78BB1B2
:1003400080628BB98BB180618BB90E94800080E0A4
:100350009EE40197F1F70E948000C0E0D1E0CE0159
:100360000197F1F70E948000CE010197F1F78BB160
:100370008F7E8BB90E9480002197F1F788E20E945E
:100380003C0188E00E943C0186E00E943C01812FF4
:100390000E943C01DF91CF911F91089580E48093EA
:1003A0007C0087E880937A00089588309105B0F446
:1003B00087709927ECE7F0E09081987F892B808304
:1003C000EAE7F0E080818064808380917A0086FD96
:1003D000FCCF8091780090917900089581E090E0C1
:1003E00008950E94CE011AB81BB881E087B988B978
:1003F0008CE00E9482010E945A0180E090E00E94FD
:10040000D50188B9C12CD12C760110C087E893E1C1
:100410000197F1F700C0000020E030E040E85FE322
:10042000C701B6010E94F3026B017C0120E030E0BD
:1004300040E251E4C701B6010E945F03882334F310
:100440001092320110923301109234011092350152
:10045000209100013091010140910201509103016E
:1004600060E070E0CB010E9464032CEB34E743E1D1
:100470005CE30E9464032AE037ED43E25DE30E94FF
:10048000F2029B01AC0160932A0170932B018093CF
:100490002C0190932D0160910401709105018091D0
:1004A0000601909107010E94F202C62FD72FF82E65
:1004B000E92E862F9D2FAF2DBE2D80932E01909378
:1004C0002F01A0933001B093310126EA3BE94AECB9
:1004D00052E46C2F7D2F8F2D9E2D0E9464030E946D
:1004E000820429E33DEF49EF55EC0E94CA0425E858
:1004F0003BEE41E550E40E94CA04609346017093CC
:1005000047018093480190934901EF92FF92DF9356
:10051000CF93C8E0D1E0DF93CF9386E391E09F9340
:100520008F930E94A905809149018F938091480182
:100530008F93809147018F93809146018F93DF9332
:10054000CF938EE391E09F938F930E94A90560E083
:1005500080E00E9450018EE091E00E94730160E013
:1005600089E00E94500160912E0170912F018091CD
:100570003001909131010E94D603862F0E944601DE
:1005800060E08CE00E94500188E191E00E947301DC
:1005900065E080E00E9450018CE191E00E947301CF
:1005A00065E088E00E94500160914601709147012A
:1005B00080914801909149010E94D603862F0E94A4
:1005C000460165E08CE00E94500185E291E00E94C6
:1005D00073018DB79EB740960FB6F8949EBF0FBEBD
:1005E0008DBF0BCF5058BB27AA270E940A030C943B
:1005F00040040E94320438F00E94390420F039F49B
:100600009F3F19F426F40C942F040EF4E095E7FBB9
:100610000C942904E92F0E94510458F3BA17620779
:1006200073078407950720F079F4A6F50C947304FA
:100630000EF4E0950B2EBA2FA02D0B01B9019001FD
:100640000C01CA01A0011124FF27591B99F0593F41
:1006500050F4503E68F11A16F040A22F232F342F89
:100660004427585FF3CF469537952795A795F040D7
:100670005395C9F77EF41F16BA0B620B730B840BEC
:10068000BAF09150A1F0FF0FBB1F661F771F881FA4
:10069000C2F70EC0BA0F621F731F841F48F48795FC
:1006A00077956795B795F7959E3F08F0B0CF9395EE
:1006B000880F08F09927EE0F9795879508950E9467
:1006C000050408F481E008950E9478030C94400426
:1006D0000E94390458F00E94320440F029F45F3F30
:1006E00029F00C94290451110C9474040C942F04D7
:1006F0000E94510468F39923B1F3552391F3951B9C
:10070000550BBB27AA2762177307840738F09F5F32
:100710005F4F220F331F441FAA1FA9F335D00E2E9F
:100720003AF0E0E832D091505040E695001CCAF70C
:100730002BD0FE2F29D0660F771F881FBB1F2617CF
:1007400037074807AB07B0E809F0BB0B802DBF01A6
:10075000FF2793585F4F3AF09E3F510578F00C9475
:1007600029040C9474045F3FE4F3983ED4F3869517
:1007700077956795B795F7959F5FC9F7880F911D96
:100780009695879597F90895E1E0660F771F881F82
:10079000BB1F621773078407BA0720F0621B730B35
:1007A000840BBA0BEE1F88F7E09508950E94590458
:1007B00088F09F5798F0B92F9927B751B0F0E1F022
:1007C000660F771F881F991F1AF0BA95C9F714C0D2
:1007D000B13091F00E947304B1E008950C94730459
:1007E000672F782F8827B85F39F0B93FCCF386950B
:1007F00077956795B395D9F73EF490958095709568
:1008000061957F4F8F4F9F4F0895990F0008550FA7
:10081000AA0BE0E8FEEF16161706E807F907C0F086
:1008200012161306E407F50798F0621B730B840B8E
:10083000950B39F40A2661F0232B242B252B21F468
:1008400008950A2609F4A140A6958FEF811D811D08
:10085000089597F99F6780E870E060E008959FEF42
:1008600080EC089500240A94161617061806090647
:10087000089500240A941216130614060506089516
:10088000092E0394000C11F4882352F0BB0F40F49E
:10089000BF2B11F460FF04C06F5F7F4F8F4F9F4FDE
:1008A000089557FD9058440F551F59F05F3F71F060
:1008B0004795880F97FB991F61F09F3F79F08795C7
:1008C0000895121613061406551FF2CF4695F1DF50
:1008D00008C0161617061806991FF1CF86957105E0
:1008E000610508940895E894BB2766277727CB0114
:1008F00097F9089516F00C9474050C942F046894DD
:100900000C9429040E945904A8F39923C1F3AEF36F
:10091000DF93CF931F930F93FF92C92FDD27882377
:100920002AF02197660F771F881FDAF720E030E062
:1009300040E85FEB9FE3883920F0803E38F0219655
:100940008F770E94F302E8E6F0E004C00E94F30211
:10095000E5E9F0E00E9482058B01BE01EC01FB2E6F
:100960006F5771097595771F880B990B0E94390590
:1009700028E132E741E35FE30E94DD04AF2D9801F7
:10098000AE01FF900F911F91CF91DF910E940A035A
:100990000C9440040E94DD040C9440040E94320434
:1009A00038F00E94390420F0952311F00C942904AA
:1009B0000C942F0411240C9474040E94510470F3BD
:1009C000959FC1F3950F50E0551F629FF001729FF4
:1009D000BB27F00DB11D639FAA27F00DB11DAA1F03
:1009E000649F6627B00DA11D661F829F2227B00D50
:1009F000A11D621F739FB00DA11D621F839FA00DDB
:100A0000611D221F749F3327A00D611D231F849F2A
:100A1000600D211D822F762F6A2F11249F57504081
:100A20009AF0F1F088234AF0EE0FFF1FBB1F661FFC
:100A3000771F881F91505040A9F79E3F510580F0C5
:100A40000C9429040C9474045F3FE4F3983ED4F3AF
:100A5000869577956795B795F795E7959F5FC1F769
:100A6000FE2B880F911D9695879597F90895E89428
:100A700009C097FB3EF490958095709561957F4FE6
:100A80008F4F9F4F9923A9F0F92F96E9BB27939594
:100A9000F695879577956795B795F111F8CFFAF4A4
:100AA000BB0F11F460FF1BC06F5F7F4F8F4F9F4FD5
:100AB00016C0882311F096E911C0772321F09EE833
:100AC000872F762F05C0662371F096E8862F70E099
:100AD00060E02AF09A95660F771F881FDAF7880F73
:100AE0009695879597F908959F3F31F0915020F49E
:100AF000879577956795B795880F911D96958795FA
:100B000097F90895DF93CF931F930F93FF92EF927E
:100B1000DF927B018C01689406C0DA2EEF010E94FF
:100B2000DD04FE01E894A5912591359145915591FB
:100B3000A6F3EF010E940A03FE019701A801DA94CF
:100B400069F7DF90EF90FF900F911F91CF91DF91A8
:100B50000895AEE0B0E0EFEAF5E00C946A080D8984
:100B60001E8986E08C831A8309838FEF9FE79E831B
:100B70008D83AE01475E5F4F6F89788DCE01019600
:100B80000E94CB05EF81F885E00FF11F10822E96B1
:100B9000E4E00C948608ABE0B0E0E1EDF5E00C9405
:100BA0005C086C017B018A01FC011782168283813B
:100BB00081FFCCC1CE0101963C01F6019381F70182
:100BC00093FD859193FF81917F01882309F4BAC138
:100BD000853239F493FD859193FF81917F018532B0
:100BE00029F4B60190E00E94C207E7CF912C212C96
:100BF000312CFFE1F315D8F08B3279F038F48032E4
:100C000079F08332A1F4232D20611DC08D3261F073
:100C1000803369F4232D216016C0832D8260382E25
:100C2000E32DE4603E2E2AC0F32DF8601DC037FC92
:100C30002DC020ED280F2A3040F08E32B9F436FC5A
:100C400081C1232D2064322E19C036FE06C08AE0F1
:100C5000989E200D1124922E11C0EAE02E9E200DA8
:100C60001124222EF32DF0623F2E08C08C3621F481
:100C7000832D8068382E02C0883641F4F70193FD39
:100C8000859193FF81917F018111B3CF982F9F7D33
:100C90009554933028F40C5F1F4F9FE399830DC048
:100CA000833631F0833771F0833509F059C021C0A4
:100CB000F801808189830E5F1F4F88248394912CD3
:100CC000530113C02801F2E04F0E511CF801A0801F
:100CD000B18036FE03C0692D70E002C06FEF7FEF78
:100CE000C5010E94B7074C018201F32DFF773F2E0B
:100CF00016C0280122E0420E511CF801A080B180EC
:100D000036FE03C0692D70E002C06FEF7FEFC501B2
:100D10000E94AC074C01F32DF0683F2E820133FC9A
:100D20001BC0822D90E088169906B0F4B60180E2CF
:100D300090E00E94C2072A94F4CFF50137FC859118
:100D400037FE81915F01B60190E00E94C207211039
:100D50002A9421E0821A91088114910471F7E8C065
:100D6000843611F0893641F5F80137FE07C06081FD
:100D70007181828193810C5F1F4F08C060817181F6
:100D8000072E000C880B990B0E5F1F4FF32DFF767B
:100D90003F2E97FF09C090958095709561957F4F84
:100DA0008F4F9F4FF0683F2E2AE030E0A3010E9452
:100DB000FE07882E861845C0853731F4232D2F7EF7
:100DC000B22E2AE030E025C0932D997FB92E8F36C0
:100DD000C1F018F4883579F0B5C0803719F088373C
:100DE00021F0B0C0E92FE061BE2EB4FE0DC0FB2D96
:100DF000F460BF2E09C034FE0AC0292F2660B22E2F
:100E000006C028E030E005C020E130E002C020E16B
:100E100032E0F801B7FE07C0608171818281938161
:100E20000C5F1F4F06C06081718180E090E00E5F13
:100E30001F4FA3010E94FE07882E8618FB2DFF7707
:100E40003F2E36FE0DC0232D2E7FA22E891458F47E
:100E500034FE0BC032FC09C0832D8E7EA82E05C047
:100E6000B82CA32C03C0B82C01C0B92CA4FE0FC011
:100E7000FE01E80DF11D8081803321F49A2D997EC9
:100E8000A92E09C0A2FE06C0B394B39404C08A2D53
:100E9000867809F0B394A3FC11C0A0FE06C0B2147A
:100EA00088F4280C922C9B180EC0B21460F4B60182
:100EB00080E290E00E94C207B394F7CFB21418F416
:100EC0002B1802C0982C212CA4FE10C0B60180E380
:100ED00090E00E94C207A2FE17C0A1FC03C088E7F1
:100EE00090E002C088E590E0B6010CC08A2D8678BB
:100EF00059F0A1FE02C08BE201C080E2A7FC8DE2A6
:100F0000B60190E00E94C207891438F4B60180E36C
:100F100090E00E94C2079A94F7CF8A94F301E80DFB
:100F2000F11D8081B60190E00E94C2078110F5CFCB
:100F3000222009F442CEB60180E290E00E94C2076E
:100F40002A94F6CFF6018681978102C08FEF9FEF3A
:100F50002B96E2E10C947808FC01059061507040FA
:100F60000110D8F7809590958E0F9F1F0895FC0172
:100F70006150704001900110D8F7809590958E0FC8
:100F80009F1F08950F931F93CF93DF93FB0123813E
:100F900021FD03C08FEF9FEF2CC022FF16C04681BA
:100FA0005781248135814217530744F4A081B181D0
:100FB0009D012F5F3F4F318320838C9326813781A2
:100FC0002F5F3F4F3783268314C08B01EC01FB0159
:100FD0000084F185E02D0995892BE1F6D80116965C
:100FE0008D919C911797019617969C938E931697C7
:100FF000CE01DF91CF911F910F910895FA01AA2799
:10100000283051F1203181F1E8946F936E7F6E5F4B
:101010007F4F8F4F9F4FAF4FB1E03ED0B4E03CD0F9
:10102000670F781F891F9A1FA11D680F791F8A1FDC
:10103000911DA11D6A0F711D811D911DA11D20D043
:1010400009F468943F912AE0269F11243019305DFD
:101050003193DEF6CF010895462F4770405D4193EE
:10106000B3E00FD0C9F7F6CF462F4F70405D4A333B
:1010700018F0495D31FD4052419302D0A9F7EACF03
:10108000B4E0A6959795879577956795BA95C9F732
:1010900000976105710508959B01AC010A2E069425
:1010A0005795479537952795BA95C9F7620F731FDE
:1010B000841F951FA01D08952F923F924F925F921B
:1010C0006F927F928F929F92AF92BF92CF92DF9258
:1010D000EF92FF920F931F93CF93DF93CDB7DEB7BD
:1010E000CA1BDB0B0FB6F894DEBF0FBECDBF099451
:1010F0002A88398848885F846E847D848C849B84A8
:10110000AA84B984C884DF80EE80FD800C811B81B5
:10111000AA81B981CE0FD11D0FB6F894DEBF0FBEE4
:0A112000CDBFED010895F894FFCF54
:10112A000000A04066A6CA4225302E3266005072E0
:10113A006573696F6E3D20006B506100416C747578
:0A114A0072613D200066747300001E
:00000001FF
